:020000040800F2
:10000000800E002029020008091B00086D1100085D
:10001000051B000859060008252300080000000001
:10002000000000000000000000000000E91B0008C4
:10003000B109000800000000851B00084D200008E1
:10004000430200084302000843020008430200087C
:100050004302000843020008CD090008250A0008F1
:100060007D0A0008ED0A0008850B0008430200081D
:10007000430200084302000843020008430200084C
:10008000430200084302000843020008430200083C
:100090004302000843020008430200081D0C000848
:1000A000430200084302000843020008430200081C
:1000B000430200084302000843020008430200080C
:1000C00043020008430200084302000843020008FC
:1000D00043020008430200084302000843020008EC
:1000E00043020008430200084302000843020008DC
:1000F00043020008430200084302000843020008CC
:1001000043020008430200084302000843020008BB
:1001100043020008430200084302000843020008AB
:10012000430200084302000843020008430200089B
:10013000430200084302000843020008430200088B
:10014000430200084302000843020008430200087B
:10015000430200084302000843020008430200086B
:10016000430200084302000843020008430200085B
:10017000430200084302000843020008430200084B
:10018000430200084302000800F002F800F03CF8C7
:100190000AA090E8000C82448344AAF10107DA45E2
:1001A00001D100F031F8AFF2090EBAE80F0013F0F8
:1001B000010F18BFFB1A43F0010318475428000031
:1001C00074280000103A24BF78C878C1FAD85207C2
:1001D00024BF30C830C144BF04680C6070470000C1
:1001E0000023002400250026103A28BF78C1FBD840
:1001F000520728BF30C148BF0B6070471FB502F0DF
:10020000EDFA1FBD10B510BD00F031F81146FFF733
:10021000F5FF02F00FF900F04FF803B4FFF7F2FF1B
:1002200003BC00F057F80000094880470948004720
:10023000FEE7FEE7FEE7FEE7FEE7FEE7FEE7FEE796
:10024000FEE7FEE704480549054A064B70470000F3
:10025000512000088901000880080020800E00203D
:10026000800A0020800A002070477047704775465A
:1002700000F02CF8AE4605006946534620F0070012
:10028000854618B020B5FFF7DDFFBDE820404FF0F0
:1002900000064FF000074FF000084FF0000B21F070
:1002A0000701AC46ACE8C009ACE8C009ACE8C0093D
:1002B000ACE8C0098D46704710B50446AFF3008026
:1002C0002046BDE81040FFF7A8BF00000048704777
:1002D0002008002001491820ABBEFEE726000200DE
:1002E000704700001CB50121102001F04DFC4FF4B7
:1002F000C050009001208DF8040000208DF8060009
:1003000003208DF8050001208DF807006946054897
:1003100000F040FD0120044908600449C1F8B00222
:100320001CBD000000100240AC02424200004242EC
:100330000021124A11601249096821F04071104AE7
:1003400011601146096841F08071116000210D4A69
:10035000C2F8B012002001E0411CC8B21428FBDB37
:100360000121064A1160002001E0411CC8B2142896
:10037000FBDB0021014A116070470000AC024242E1
:1003800000100240000042420021104A1160104952
:10039000096821F040710E4A11601146096841F068
:1003A00080711160002001E0411CC8B21428FBDB01
:1003B0000121064A1160002001E0411CC8B2142846
:1003C000FBDB0021014A116070470000AC02424291
:1003D000001002401249096821F04071104A116072
:1003E0001146096841F08071116001210D4A1160C8
:1003F0000D4AC2F8AC12002001E0411CC8B23228FC
:10040000FBDB0021074A1160002001E0411CC8B25B
:100410003228FBDB0021034A121F116070470000E5
:1004200000100240B00242420000424212490968F4
:1004300021F04071104A11601146096841F0807145
:10044000116000210D4A11600D4AC2F8AC12002063
:1004500001E0411CC8B23228FBDB0121074A121F10
:100460001160074AC2F8B012002001E0411CC8B276
:100470003228FBDB7047000000100240B00242420D
:100480000000424210B5002400231748006820F005
:10049000407015490860084600680860012013494B
:1004A000086000BF01E0581CC3B2142BFBDB012025
:1004B0000E49091F0860002301E0581CC3B2142B29
:1004C000FBDB07E0601CC4B2FA2C03DDFFF7AEFFD4
:1004D000012010BD0548803800680028F2D103498A
:1004E000091F086000BFF4E700100240B00242425A
:1004F00010B5FFF7F7FE10BD30B50446FFF76AFFF1
:10050000A02000F04FF8FFF7BDFF204600F04AF8AA
:10051000FFF7B8FFFFF75EFFA12000F043F8FFF7F9
:10052000B1FF002000F006F80546FFF77FFF2846E0
:1005300030BD000070B505461748006820F04070D7
:100540001549086008460068086000261AE0002087
:1005500012490860002301E0581CC3B2142BFBDBD6
:1005600001200E4908606006040E0D48D0F83002E4
:100570002044C4B2002301E0581CC3B2142BFBDB9F
:10058000701CC6B2082EE2DB15B1FFF7D1FE01E008
:10059000FFF7FAFE204670BD00100240AC02424256
:1005A0000000424210B50146194B1B6823F040730E
:1005B000174C236023461B6843F08073236000239D
:1005C000144C236000221FE0CB09124C241D236031
:1005D0004B06190E002001E0431CD8B21428FBDBA7
:1005E00001230C4C2360002001E0431CD8B21428E6
:1005F000FBDB0023074C2360002001E0431CD8B242
:100600001428FBDB531CDAB2082ADDDB10BD000026
:1006100000100240AC02424270B506460C46FFF79D
:10062000D9FEA020FFF7BEFFFFF72CFF3046FFF7F3
:10063000B9FFFFF727FF2046FFF7B4FFFFF722FFC0
:10064000FFF7F4FE002500E06D1C02488542FBD355
:1006500070BD000040420F0000BFFEE710B5134818
:10066000006818B901201249087002E00020104902
:1006700008700E48001D006818B901200D49087067
:1006800002E000200B4908700848006818B10748CC
:10069000001D006818B901200749087002E0002019
:1006A000054908700A2001F05DFE10BD008241423C
:1006B000090000200A0000200800002039B1084A83
:1006C0001268012383401A43054B1A6006E0044A6E
:1006D0001268012383409A43014B1A60704700005F
:1006E0000074004041B1094A12684FF480538340BE
:1006F0001A43064B1A6007E0044A12684FF480530D
:1007000083409A43014B1A60704700000074004018
:1007100000B593B00121480501F036FA01214807E0
:1007200001F042FA04200F90002010900220129055
:100730000FA9002000F03EF81A4800F061F84FF0D1
:10074000606000901848019018480290184800888E
:1007500004904FF400600790089040200390002020
:1007600005904FF4806006908010099040020A9036
:1007700000200B9001200C9000200D900E906946F7
:10078000084800F0E9F80121064800F02DF80121A1
:100790000020FFF793FF01210020FFF7A3FF13B014
:1007A00000BD000088600240087400402000002066
:1007B0001400002030B5002200230A4C226840F6C5
:1007C000FE748440A243D1E900452C438D682C433C
:1007D000CD6844EA050303FA00F42243014C226089
:1007E00030BD00000074004021B1026842F00102F7
:1007F000026003E0026822F001020260704700001C
:10080000016821F001010160002101604160816007
:10081000C1600161212141614A49884204D13D21E1
:10082000484A103A91608CE046491831884205D117
:100830004FF47461434A103A916082E0414930318B
:10084000884205D14FF474113E4A103A916078E025
:100850003C494831884205D14FF07461394A103A19
:1008600091606EE037496031884204D13649354A9B
:10087000103AD16065E033497831884204D1334978
:10088000304A103AD1605CE02E499031884204D160
:100890002F492C4A103AD16053E02A49A8318842A6
:1008A00005D14FF03D51274A103AD16049E029491E
:1008B000884204D13D21274A083A116041E0254988
:1008C0001831884205D14FF47461224A083A116008
:1008D00037E020493031884205D14FF474111D4A68
:1008E000083A11602DE01B494831884205D14FF08C
:1008F0007461184A083A116023E016496031884251
:1009000004D11149134A121F11601AE011497831BC
:10091000884204D10D490F4A121F116011E00D49A0
:100920009031884204D10A490A4A121F116008E036
:100930000849A831884204D14FF03D51054A121FA1
:1009400011607047106002403D000020400F002001
:1009500000003D201064024010B500220268134BD5
:100960001A40CC680B6823434C6923438C692343AA
:10097000CC6923430C6A23434C6A23438C6A234388
:100980004C6B23438C6B23431A430260426922F071
:100990000702D1E90B3423431A4342610B694360D8
:1009A0004B6883608B68C36010BD00003F801CF003
:1009B0007047002007E0002101E04A1CD1B2142951
:1009C000FBDB421CD0B23228F5DB704710B50120AA
:1009D00000F076F9E8B1FFF7ECFF0E48006818B9AF
:1009E00001200D49087002E000200B4908700A48F8
:1009F0000078012803D009480078012803D101209C
:100A00000749087002E0002005490870012000F045
:100A100051F910BD00824142090000200A00002067
:100A20000800002010B5022000F04AF9E8B1FFF7F5
:100A3000C0FF0E48006818B901200D49087002E097
:100A400000200B4908700B480078012803D00848A3
:100A50000078012803D101200749087002E0002036
:100A600005490870022000F025F910BD04824142BA
:100A70000A000020090000200800002010B5042012
:100A800000F01EF960B3FFF794FF164800680128D4
:100A90000DD115480078FF2803DBFF2012490870AC
:100AA00012E011480078401C0F4908700CE00E4815
:100AB0000078002803DC00200B49087004E00A4895
:100AC0000078401E08490870074801780020FFF7A9
:100AD000A3FD0548007800F031FD042000F0EAF89D
:100AE00010BD00003C8241420000002010B50820EB
:100AF00000F0E6F800283FD0FFF75BFF1F480068D2
:100B000001280FD11E480088B0F5966F04DB4FF422
:100B100096601B49088012E0194800880A3018497D
:100B200008800CE016480088142803DC14201449BF
:100B3000088004E0124800880A38114908801048EB
:100B40000488E01704EB1060C0F307210120FFF7D1
:100B500063FD0B480488E01704EB10600012A4EB5F
:100B60000020C1B20220FFF757FD0548008800F0C1
:100B700067FE082000F09EF810BD00003882414258
:100B80000200002010B5102000F09AF800283FD095
:100B9000FFF70FFF1F48006801280FD11E4800888B
:100BA000B0F5967F04DB4FF496701B49088012E085
:100BB000194800880A30184908800CE01648008857
:100BC0000A2803DC0A201449088004E0124800883F
:100BD0000A381149088010480488E01704EB1060B7
:100BE000C0F307210320FFF717FD0B480488E01727
:100BF00004EB10600012A4EB0020C1B20420FFF748
:100C00000BFD0548008800F0A9FD102000F052F807
:100C100010BD0000180243420400002010B520203F
:100C200000F04EF800283FD0FFF7C3FE1F480068D1
:100C300001280FD11E480088B0F5FA7F04DB4FF47D
:100C4000FA701B49088012E0194800880A301849D8
:100C500008800CE016480088002803DC00201449B6
:100C6000088004E0124800880A38114908801048BA
:100C70000488E01704EB1060C0F307210520FFF79C
:100C8000CBFC0B480488E01704EB10600012A4EBC7
:100C90000020C1B20620FFF7BFFC0548008800F025
:100CA000EBFC202000F006F810BD00001C024342BF
:100CB000060000200149086070470000143C014014
:100CC00001460020034A12680A400AB1012000E0F0
:100CD00000207047143C0140002123498279002AFA
:100CE0003AD00A46126803689A430B461A600A1DF6
:100CF000126803689A430B1D1A60027911440A684E
:100D000003681A430A60184A0832126803689A4353
:100D1000154B08331A601A1D126803689A43124B68
:100D20000C331A604279102A0ED11A1F1268036818
:100D30001A430D4B08331A601A1D126803681A43D0
:100D4000094B0C331A600DE00749427911440A68D7
:100D500003681A430A6005E0027911440A680368CF
:100D60009A430A6070470000003C01401CB5012115
:100D7000084600F009FF1020009003208DF80400C1
:100D800000208DF807006946014800F003F81CBDFB
:100D900000000240F0B50A4600210023002400BFF5
:100DA0003DE0012505FA01F3156805EA03049C42BC
:100DB00034D105684F000326BE40B5430560157960
:100DC0004E00B5400668354305601579012D02D007
:100DD0001579022D16D185684F000326BE40B54314
:100DE000856055794E00B540866835438560456815
:100DF00001268E40B5434560456896798E40B6B26F
:100E000035434560C5684F000326BE40B543C56005
:100E1000D5794E00B540C6683543C560491C1029D8
:100E2000BFD3F0BDF0B5002300244D07ED0E02FA4C
:100E300005F3CE1000F1200555F826504E07F70EA9
:100E40000F26BE40B543CF1000F1200646F82750CC
:100E5000CE1000F1200555F8265045EA0304CE10C7
:100E600000F1200545F82640F0BD4183704701831D
:100E70007047000000B585B00121084600F084FEEF
:100E8000C020039001208DF8100000208DF8120082
:100E900003208DF8110001208DF8130003A9AE483E
:100EA000FFF778FF0121042000F06EFE3020039050
:100EB00001208DF8100000208DF8120003208DF81D
:100EC000110001208DF8130003A9A448FFF762FF69
:100ED0000121084600F058FE0F20039001208DF8F4
:100EE000100000208DF8120003208DF81100012061
:100EF0008DF8130003A99848FFF74CFF0121042047
:100F000000F042FE0F20039001208DF81000002019
:100F10008DF8120003208DF8110001208DF81300C8
:100F200003A98E48FFF736FF0121202000F02CFE98
:100F30004FF48070039001208DF8100000208DF890
:100F4000120003208DF8110001208DF8130003A971
:100F50008348FFF71FFF0121402000F015FEFC2011
:100F6000039000208DF8100003208DF8110002205E
:100F70008DF8130003A97B48FFF70CFF012108201F
:100F800000F002FE4FF44040039000208DF8100066
:100F900003208DF8110002208DF8130003A9724878
:100FA000FFF7F8FE0121082000F0EEFD032003907A
:100FB00000208DF8100003208DF8110001208DF81D
:100FC000130003A96848FFF7E5FE0121880300F03C
:100FD000FBFD0021032000F009FE0121032000F0A9
:100FE00005FE0221062000F001FE0321062000F08C
:100FF000FDFD0421062000F0F9FD0521062000F08A
:10100000F5FD0120019000208DF8080010208DF8DA
:10101000090001208DF80A0001A8FFF75DFE0620F7
:101020008DF8000002208DF801008DF802000120EB
:101030008DF80300684600F069FD02200190002051
:101040008DF8080010208DF8090001208DF80A00A5
:1010500001A8FFF741FE07208DF8000002208DF85F
:1010600001008DF8020001208DF80300684600F0B1
:101070004DFD0420019000208DF8080008208DF817
:10108000090001208DF80A0001A8FFF725FE0820BD
:101090008DF8000002208DF801008DF8020001207B
:1010A0008DF80300684600F031FD08200190002013
:1010B0008DF8080008208DF8090001208DF80A003D
:1010C00001A8FFF709FE09208DF8000002208DF825
:1010D00001008DF8020001208DF80300684600F041
:1010E00015FD1020019000208DF8080008208DF8D3
:1010F000090001208DF80A0001A8FFF7EDFD0A2084
:101100008DF8000002208DF801008DF8020001200A
:101110008DF80300684600F0F9FC202001900020C3
:101120008DF8080008208DF8090001208DF80A00CC
:1011300001A8FFF7D1FD17208DF8000002208DF8DF
:1011400001008DF8020001208DF80300684600F0D0
:10115000DDFC05B000BD00000000024000080240B8
:101160000014024000180240000C024000BFFEE7DD
:101170002DE9F0478CB00527B846B946BA46642633
:1011800086A103C9CDE90A0186A207CA07AB07C336
:1011900087A207CA04AB07C388A207CA01AB07C36B
:1011A00089A000680090002518E0062101FB057168
:1011B000C8B2002100F0AEF900240BE00AA9495D95
:1011C00001EB4101814A02EB4101085D00F058FC4E
:1011D000601CC4B2062CF1DB681CC5B2062DE4DB32
:1011E000002518E0062101FB0581C8B2022100F0AC
:1011F00091F900240BE007A9495D01EB4101734A15
:1012000002EB4101085D00F03BFC601CC4B2062CFF
:10121000F1DB681CC5B2092DE4DB002518E00621CE
:1012200001FB0561C8B2022100F074F900240BE053
:101230001DF8051001EB4101644A02EB4101085D14
:1012400000F01EFC601CC4B2062CF1DB681CC5B2A9
:10125000032DE4DB002518E0062101FB0591C8B24F
:10126000042100F057F900240BE004A9495D01EBCB
:101270004101564A02EB4101085D00F001FC601C8F
:10128000C4B2062CF1DB681CC5B2092DE4DB0125D4
:1012900018E0062101FB0561C8B2042100F03AF90B
:1012A00000240BE01DF8051001EB4101474A02EB59
:1012B0004101085D00F0E4FB601CC4B2062CF1DBC8
:1012C000681CC5B2032DE4DB002518E0062101FBF4
:1012D00005A1C8B2062100F01DF900240BE001A908
:1012E000495D01EB4101394A02EB4101085D00F023
:1012F000C7FB601CC4B2062CF1DB681CC5B2092D0B
:10130000E4DB0721282000F005F9002405E030493E
:10131000085D00F0B5FB601CC4B2062CF7DB0721AA
:101320002E2000F0F7F8002406E02949BA31085DC4
:1013300000F0A6FB601CC4B2062CF6DB072150208F
:1013400000F0E8F8002405E02149085D00F098FB72
:10135000601CC4B2062CF7DB0721562000F0DAF837
:10136000002406E01A498A31085D00F089FB601C00
:10137000C4B2062CF6DB07215C2000F0CBF8002479
:1013800006E013498A31085D00F07AFB601CC4B2A4
:10139000062CF6DB0CB0BDE8F087000021242E55AA
:1013A0004D1A0000335155415B2652451A0000008A
:1013B00033494E455B2652451A00000033494E45DD
:1013C0005B214D501A0000004B285A00E627000808
:1013D0000029000870B50646002415E004F1B001AC
:1013E000C8B200F00BFB012000F008FB102000F059
:1013F00005FB002504E0304600F042FB681CC5B246
:10140000802DF8DB601CC4B2082CE7DB70BD000047
:1014100010B520213D48FFF72AFD80213C48FFF709
:1014200024FD322000F09EFF80213948FFF71FFD88
:10143000002000F01AFD0A2000F094FF802000F048
:1014400002FD0A2000F08EFF3F2000F023FD0A205D
:1014500000F088FF002000F0FFFC0A2000F082FF6F
:10146000002000F057FC0A2000F07CFF042000F070
:10147000CFFC0A2000F076FF022000F039FC0A20A1
:1014800000F070FF012000F017FD0A2000F06AFF55
:10149000082000F0D1FC0A2000F064FF102000F0CA
:1014A000C1FC0A2000F05EFFCF2000F02AFC0A20D9
:1014B00000F058FFF12000F0F6FC0A2000F052FF87
:1014C000402000F000FD0A2000F04CFF002000F05A
:1014D000D3FC0A2000F046FF002000F0D4FC0A20D4
:1014E00000F040FF012000F0C0FC0A2000F03AFFAD
:1014F0000020FFF76FFF0A2000F034FF00210846AC
:1015000000F008F80A2000F02DFF10BD000802408E
:101510000000024070B504460D4605F1B001C8B2A6
:1015200000F06CFA102141EA141000F067FA04F0A0
:101530000F0141F0010000F061FA70BD2DE9F041AA
:1015400006462A27072526E007F12A01062202FB84
:101550001511C8B20021FFF7DDFF0120A84030407F
:1015600050B1002405E04349085D00F089FA601C91
:10157000C4B2062CF7DB0AE0002406E03D49891FCF
:10158000085D00F07DFA601CC4B2062CF6DB05B9DC
:1015900003E0681EC5B2002DD6DA00BF00215F202F
:1015A000FFF7B8FF642096FBF0F0C5B2632E11DDA3
:1015B00000240CE005F1100101EB41012D4A663ACF
:1015C00002EB4101085D00F05BFA601CC4B2062C1E
:1015D000F0DB08E0002404E0002000F051FA601C79
:1015E000C4B2062CF8DB00216520FFF793FF6420CE
:1015F00096FBF0F100FB11600A2190FBF1F0C5B2FF
:10160000092E11DD00240CE005F1100101EB410170
:10161000184A663A02EB4101085D00F031FA601C9D
:10162000C4B2062CF0DB08E0002404E0002000F047
:1016300027FA601CC4B2062CF8DB00216B20FFF7F0
:1016400069FF0A2096FBF0F100FB1160C5B200248F
:101650000CE005F1100101EB4101064A663A02EB8C
:101660004101085D00F00CFA601CC4B2062CF0DBEE
:10167000BDE8F0814C2800082DE9F04105464727D8
:10168000642095FBF0F0C6B206213846FFF742FF12
:10169000632D10DD00240BE006F1100101EB410188
:1016A0002D4A02EB4101085D00F0EAF9601CC4B26A
:1016B000062CF1DB08E0002404E0002000F0E0F953
:1016C000601CC4B2062CF8DB642095FBF0F100FB33
:1016D00011500A2190FBF1F0C6B2B91DC8B2062123
:1016E000FFF718FF092D10DD00240BE006F11001B3
:1016F00001EB4101184A02EB4101085D00F0C0F91D
:10170000601CC4B2062CF1DB08E0002404E00020D9
:1017100000F0B6F9601CC4B2062CF8DB0A2095FB79
:10172000F0F100FB1150C6B207F10C01C8B206215E
:10173000FFF7F0FE00240BE006F1100101EB410180
:10174000054A02EB4101085D00F09AF9601CC4B241
:10175000062CF1DBBDE8F081E62700082DE9F04119
:1017600005464727642095FBF0F0C6B204213846B1
:10177000FFF7D0FE632D10DD00240BE006F1100111
:1017800001EB41012D4A02EB4101085D00F078F9BF
:10179000601CC4B2062CF1DB08E0002404E0002049
:1017A00000F06EF9601CC4B2062CF8DB642095FBD7
:1017B000F0F100FB11500A2190FBF1F0C6B2B91D07
:1017C000C8B20421FFF7A6FE092D10DD00240BE0AE
:1017D00006F1100101EB4101184A02EB4101085DDD
:1017E00000F04EF9601CC4B2062CF1DB08E00024C6
:1017F00004E0002000F044F9601CC4B2062CF8DBC1
:101800000A2095FBF0F100FB1150C6B207F10C0164
:10181000C8B20421FFF77EFE00240BE006F11001A0
:1018200001EB4101054A02EB4101085D00F028F996
:10183000601CC4B2062CF1DBBDE8F081E62700088D
:101840002DE9F041054641274FF47A7095FBF0F001
:10185000C6B202213846FFF75DFEB5F57A7F10DB90
:1018600000240BE006F1100101EB4101434A02EBB9
:101870004101085D00F004F9601CC4B2062CF1DBE4
:1018800008E0002404E0002000F0FAF8601CC4B274
:10189000062CF8DB4FF47A7095FBF0F100FB115049
:1018A000642190FBF1F0C6B2B91DC8B20221FFF766
:1018B00031FE632D10DD00240BE006F1100101EB79
:1018C00041012E4A02EB4101085D00F0D9F8601C8D
:1018D000C4B2062CF1DB08E0002404E0002000F094
:1018E000CFF8601CC4B2062CF8DB642095FBF0F145
:1018F00000FB11500A2190FBF1F0C6B207F10C0178
:10190000C8B20221FFF706FE092D10DD00240BE00E
:1019100006F1100101EB4101184A02EB4101085D9B
:1019200000F0AEF8601CC4B2062CF1DB08E0002425
:1019300004E0002000F0A4F8601CC4B2062CF8DB20
:101940000A2095FBF0F100FB1150C6B207F112011D
:10195000C8B20221FFF7DEFD00240BE006F1100102
:1019600001EB4101054A02EB4101085D00F088F8F6
:10197000601CC4B2062CF1DBBDE8F081E62700084C
:1019800070B50546012D1BD107211E20FFF7C2FDB2
:10199000002405E01849085D00F072F8601CC4B22C
:1019A000062CF7DB07214620FFF7B4FD002404E0F6
:1019B000002000F065F8601CC4B2062CF8DB1AE0C9
:1019C00007214620FFF7A6FD002405E00A49085D2F
:1019D00000F056F8601CC4B2062CF7DB07211E206D
:1019E000FFF798FD002404E0002000F049F8601C97
:1019F000C4B2062CF8DB70BD2228000870B504467E
:101A0000082540211C48FFF730FA012000F0C6FCF1
:101A100020211A48FFF729FA052000F0BFFC24E036
:101A200004F0800038B110211448FFF720FA01209B
:101A300000F0B4FC06E010211048FFF716FA012070
:101A400000F0ACFC20210D48FFF711FA032000F054
:101A5000A5FC20210948FFF708FA012000F09EFCB0
:101A60006006040E012000F099FC281EA5F101017A
:101A7000CDB2D5D170BD0000000002400008024088
:101A800070B50446082540211C48FFF7F0F90120F5
:101A900000F084FC20211A48FFF7E7F9052000F048
:101AA0007DFC24E004F0800038B110211448FFF7D9
:101AB000DEF9012000F072FC06E010211048FFF76B
:101AC000D4F9012000F06AFC20210D48FFF7CFF97E
:101AD000032000F063FC20210948FFF7C6F901202C
:101AE00000F05CFC6006040E012000F057FC281E8C
:101AF000A5F10101CDB2D5D170BD000000000240BA
:101B00000008024000BFFEE77047000070B50021EA
:101B100000230F22C4781CB3174C246804F4E0643B
:101B2000C4F5E064C4F30721C1F10404E3B20A413F
:101B300044789C40E1B28478144021430C07210E84
:101B40000E4C05786155047804F01F050124AC4063
:101B500005786D11AD0005F1E025C5F8004109E0FB
:101B6000047804F01F050124AC40054D0678761179
:101B700045F8264070BD00000CED00E000E400E0F8
:101B800080E100E07047000029B1064A1268024374
:101B9000044B1A6004E0034A12688243014B1A6046
:101BA000704700003038024029B1064A12680243EB
:101BB000044B1A6004E0034A12688243014B1A6026
:101BC000704700004038024029B1064A12680243BB
:101BD000044B1A6004E0034A12688243014B1A6006
:101BE00070470000443802407047000030B50022C2
:101BF0008B071C0F0F2303FA04F20B4B8C1053F8C6
:101C000024309343084C8D1044F8253023468C1023
:101C100053F824308C07240F00FA04F42343024CB9
:101C20008D1044F8253030BD0838014000F0010126
:101C300019B101212C4A116002E000212A4A1160E9
:101C400000F0020121B10121274A121F116003E0B7
:101C50000021254A121F116000F0040121B1012169
:101C6000214A083A116003E000211F4A083A116036
:101C700000F0080121B101211B4A0C3A116003E078
:101C80000021194A0C3A116000F0100119B101212C
:101C9000164A116002E00021144A116000F0200190
:101CA00021B10121114A121F116003E000210F4AE6
:101CB000121F116000F0400121B101210B4A083AC6
:101CC000116003E00021094A083A116000F0800128
:101CD00021B10121054A0C3A116003E00021034AB9
:101CE0000C3A1160704700008C0240428C02414265
:101CF00010B504462020FFF781FE2046FFF77EFE48
:101D000010BD10B504468120FFF778FE2046FFF78E
:101D100075FE10BD10B5044644F04000FFF76EFE9E
:101D200010BD00000CB50020019000903448006800
:101D300040F480303249086000BF3148006800F448
:101D4000003000900198401C0190009818B901984B
:101D5000B0F5A04FF1D12A48006800F4003010B16E
:101D60000120009001E0002000900098012846D159
:101D700023484030006840F08050214940310860DD
:101D80002048006840F440401E4908601C48083064
:101D900000681B49083108600846006840F40040AC
:101DA00008600846006840F4A05008601648091F03
:101DB0000860081F006840F08070091F086000BFBD
:101DC0000F48006800F000700028F9D040F205705C
:101DD0000E4908600A480830006820F003000849EE
:101DE000083108600846006840F00200086000BF43
:101DF00003480830006800F00C000828F8D10CBD3A
:101E0000003802400070004008544007003C024087
:101E100010B504468D20FFF7F1FD44F01000FFF7E8
:101E2000EDFD10BD10B50446DA20FFF7E7FD44F0E4
:101E30000200FFF7E3FD10BD10B5044644F0C000FA
:101E4000FFF7DCFD10BD10B50446D520FFF7D6FD29
:101E50002046FFF7D3FD10BD10B50446D320FFF791
:101E6000CDFD2046FFF7CAFD10BD10B5044644F075
:101E7000AE00FFF7C3FD10BD10B5044644F0A4004A
:101E8000FFF7BCFD10BD10B5044644F0A600FFF7F7
:101E9000B5FD10BD10B50446A820FFF7AFFD2046E4
:101EA000FFF7ACFD10BD10B50446D920FFF7A6FD25
:101EB0002046FFF7A3FD10BD10B5044644F0A00076
:101EC000FFF79CFD10BD10B50446DB20FFF796FD23
:101ED0002046FFF793FD10BD10B5FFF749F900202C
:101EE000FEF70AFB4349087008460078FFF79EFE9C
:101EF00040480078404908703E480078FFF71EFBD4
:101F00003E48006818B901203D49087002E00020F1
:101F10003B4908703A480078FFF732FD0120FEF790
:101F2000EBFA38490880084600884FF6FF7101EA4D
:101F30000020344908800220FEF7DEFA3149098882
:101F400008443049088008460088FFF779FC2D488E
:101F500000882D490880084600882C4991FBF0F044
:101F6000401E2B49088000212948008800F0A4F871
:101F70000320FEF7C1FA27490880084600884FF67B
:101F8000FF7101EA0020234908800420FEF7B4FA1B
:101F90002049098808441F49088008460088FFF73F
:101FA000DDFB1C4800881C4908800520FEF7A4FAC8
:101FB0001A490880084600884FF6FF7101EA0020A0
:101FC000164908800620FEF797FA14490988084444
:101FD0001249088008460088FFF74EFB0F4800882A
:101FE000322802DA32200E490880142000F0BAF9B3
:101FF00010BD0000000000200B00002000824142C4
:1020000008000020020000200C00002020480100F1
:102010001A000020040000200E000020060000200E
:1020200010000020042808D14FF0E021096941F098
:1020300004014FF0E022116107E04FF0E02109694F
:1020400021F004014FF0E022116170477047000059
:1020500010B51548006840F4700013490860134833
:10206000006840F001001149086000200F49083164
:1020700008600E4800680E4908400C4908600D4889
:10208000091D0860081F006820F48020091F0860EF
:10209000002006490C310860FFF744FE4FF0006055
:1020A00001498039086010BD88ED00E00038024029
:1020B000FFFFF6FE1030002430B58BB004460D460D
:1020C00001210420FFF770FD01210220FFF75CFDD4
:1020D000022208212248FEF7A5FE4FF480700990E5
:1020E00002208DF8280003208DF8290000208DF8AB
:1020F0002A0001208DF82B0009A91948FEF74AFE95
:10210000A8B2ADF818000020ADF81A000794ADF899
:10211000200006A9134800F0C3F86020ADF80400C1
:102120000120ADF806000220ADF8100001A90D480D
:1021300000F04CF808210B4800F098F801210948FC
:1021400000F02CF80121074800F034F8601C01224F
:10215000C2EB5001034800F0A0F80BB030BD000006
:10216000000402400008004010B504460121102080
:10217000FFF71AFD00220121074800F080F82146F0
:10218000054800F088F82021034800F07BF8012181
:10219000014800F00FF810BD0010004021B1028886
:1021A00042F08002028004E002884FF67F731A40FA
:1021B0000280704721B1028842F00102028004E0EF
:1021C00002884FF6FE731A400280704770B50024F3
:1021D00000220023058C4FF6FF6635400584028CF3
:1021E0008388848B4FF68F752C404FF6FC752C40FE
:1021F0000D882C434FF6FF552A408D894FF6FF7608
:1022000006EA05252A434D8806EA05252A43154D89
:10221000A84202D0144DA8421DD14FF2FF752A40AA
:10222000CD894FF6FF7606EA05252A434FF6FF359E
:102230002A408D8806EA05252A434EF6FF752B4075
:102240004DF6FF752B400D8A06EA05152B434D8A86
:1022500006EA05152B43838084838D68C563028459
:1022600070BD000000000140000401400A4600214A
:10227000818B4FF6F77319401143818370470185B5
:102280008282704782884FF68F731A4082808288DC
:102290000A4382807047C1627047C1637047000083
:1022A00000220288184B98420ED0184B98420BD04F
:1022B000B0F1804F08D0164B984205D0154B98428C
:1022C00002D0154B984204D14FF68F731A404B88B9
:1022D0001A43124B984207D0114B984204D04FF644
:1022E000FF431A400B891A4302804B68C3620B8874
:1022F0000385054B984202D0044B984201D18B7A5A
:1023000003860123838270470000014000040140DE
:102310000004004000080040000C00400010004095
:102320000014004000BFFEE710B504466FF0040043
:10233000FFF778FEE11704EB5171C1F3C701074ABB
:1023400011701046007800EB4001C1EBC0104FF651
:10235000FF7101EAC0000249088010BD1C00002086
:102360001E00002070B504464FF4077094FBF0F097
:10237000C6B24FF4077094FBF0F100FB114085B238
:1023800005E04FF4077000F02FF8701EC6B2002E63
:10239000F7D115B1284600F027F870BD0146114A63
:1023A00012784A434FF0E0235A6100229A611A469C
:1023B000126942F001021A6100BF4FF0E022106979
:1023C00000F001021AB100F48032002AF5D04FF07B
:1023D000E022126922F001024FF0E0231A6100228C
:1023E0009A6170471C0000200146114A12884A4336
:1023F0004FF0E0235A6100229A611A46126942F0B6
:1024000001021A6100BF4FF0E022106900F00102E2
:102410001AB100F48032002AF5D04FF0E0221269A0
:1024200022F001024FF0E0231A6100229A61704706
:102430001E000020A820FFF777FFFEF71BFDFEF728
:1024400095FCFEF755F8FEF7E3FFFFF745FD032087
:1024500076490870E8E0FEF701F97548007873499D
:10246000097888425FD07248007801282CD17148E1
:10247000008871490880714801886F48008800F021
:10248000F5F86D4800886E4991FBF0F06D490988B8
:1024900090FBF1F0401E6C49088008460088FFF769
:1024A00063FEFEF735F94620FFF75CFF0020674921
:1024B0000860674800786749087008460078FFF7A9
:1024C000B5FB0A20FFF74EFF5948007818BB594862
:1024D00000885949088000215748008800F0C6F854
:1024E00055480088564991FBF0F05649098890FB01
:1024F000F1F0401E5449088008460088FFF734FE7A
:10250000FEF706F90120514908600020FFF78EFB15
:102510000A20FFF727FF46480078444908704448DE
:102520000078FFF72DFA4B4800784949097888422E
:102530000ED03E48007801280AD145480078454928
:10254000087008460078FFF771FB0A20FFF70AFFC2
:102550004148008841490988884213D03F48008893
:102560003D490880084600883D4991FBF0F0401E37
:102570003C49088000213B480088FFF79DFD0A2068
:10258000FFF7F0FE2C4800882A490988884222D0AB
:102590002648007801281ED1264800882649088050
:1025A000264801882448008800F060F82248008806
:1025B000234991FBF0F02349098890FBF1F0401E7C
:1025C0002149088008460088FFF7CEFDFEF7A0F8F5
:1025D0000A20FFF7C7FE2448008818490988884266
:1025E00022D01248007801281ED1144800881E49C4
:1025F0000880084601881048008800F037F80E4827
:1026000000880F4991FBF0F00E49098890FBF1F02A
:10261000401E0D49088008460088FFF7A5FDFEF71B
:1026200077F80A20FFF79EFE15E700001200002051
:1026300008000020040000200E00002006000020FA
:1026400080DE80021400002016000020A08242429A
:10265000000000200B0000200C00002002000020E1
:10266000204801001A0000201000002030B5034669
:102670000A46B2F5F57F01DD4FF4F57240F6FA74C3
:1026800054434FF4FA7594FBF5F1962B04DD4FF4A7
:102690000074504D2C8003E04FF480644D4D2C802D
:1026A00028292FD900200BE044004C43494D2D88A8
:1026B000B4FBF5F45034484D25F81040441CA0B24A
:1026C000444D2C8804EBD475B0EB650FECDB414D29
:1026D0002C8804EBD475681010E04400A41C3D4D18
:1026E0002D88641B4C433B4D2D88B4FBF5F40C1B2B
:1026F0005034394D25F81040441CA0B2354C248884
:10270000A042EADB282931D80A292FD300200BE088
:1027100044004C432F4D2D88B4FBF5F496342E4DD8
:1027200025F81040441CA0B22A4D2C8804EBD47527
:10273000B0EB650FECDB274D2C8804EBD4756810EB
:1027400010E04400A41C234D2D88641B4C43214DF4
:102750002D88B4FBF5F40C1B96341F4D25F8104062
:10276000441CA0B21B4C2488A042EADB89BB002099
:102770000CE044004C43174D2D88B4FBF5F404F5F0
:102780009674154D25F81040441CA0B2114D2C88AC
:1027900004EBD475B0EB650FEBDB0E4D2C8804EB2E
:1027A000D475681011E04400A41C0A4D2D88641BE8
:1027B0004C43084D2D88B4FBF5F40C1B04F59674BE
:1027C000054D25F81040441CA0B2024C2488A042BC
:1027D000E9DB30BD14000020200000204FF04070E5
:1027E000E1EE100A70470000000000000000002F1A
:1027F000000000000700070000147F147F1400246D
:102800002A7F2A1200626408132300364955225099
:1028100000000503000000001C22410000004122CE
:102820001C000014083E08140008083E08080000B8
:1028300000A06000000808080808000060600000B0
:10284000002010080402003E5149453E0000427F2E
:102850004000004261514946002141454B3100187A
:1028600014127F10002745454539003C4A4949303C
:1028700000017109050300364949493600064949F6
:10288000291E000036360000000056360000000801
:1028900014224100001414141414000041221408DE
:1028A00000020151090600324959513E007C1211C3
:1028B000127C007F49494936003E41414122007F58
:1028C0004141221C007F49494941007F0909090112
:1028D000003E4149497A007F0808087F0000417F97
:1028E0004100002040413F01007F08142241007F49
:1028F00040404040007F020C027F007F0408107FB0
:10290000003E4141413E007F09090906003E415118
:10291000215E007F091929460046494949310001D5
:10292000017F0101003F4040403F001F2040201F29
:10293000003F4038403F00631408146300070870EC
:10294000080700615149454300007F41410000559F
:102950002A552A55000041417F000004020102046B
:102960000040404040400000010204000020545458
:102970005478007F484444380038444444200038A8
:102980004444487F00385454541800087E0901021A
:102990000018A4A4A47C007F080404780000447DEF
:1029A0004000004080847D00007F1028440000002B
:1029B000417F4000007C04180478007C08040478FF
:1029C00000384444443800FC2424241800182424EB
:1029D00018FC007C080404080048545454200004E7
:1029E0003F444020003C4040207C001C2040201CF4
:1029F000003C4030403C004428102844001CA0A06B
:102A0000A07C004464544C4480808080808000001E
:102A1000302A00080000002020000000C401000847
:102A2000502A000820000020600E0000E00100088D
:102A30000000000000000000000000000000000096
:102A40000000000000000000000000000000000086
:040000050800018965
:00000001FF
