:020000040800F2
:10000000800E002029020008A91B00080111000829
:10001000A51B000859060008652400080000000020
:10002000000000000000000000000000891C000823
:100030009109000800000000251C00088D2100081F
:10004000430200084302000843020008430200087C
:100050004302000843020008AD090008E109000856
:10006000150A0008850A0008190B00084302000859
:10007000430200084302000843020008430200084C
:10008000430200084302000843020008430200083C
:10009000430200084302000843020008B10B0008B5
:1000A000430200084302000843020008430200081C
:1000B000430200084302000843020008430200080C
:1000C00043020008430200084302000843020008FC
:1000D00043020008430200084302000843020008EC
:1000E00043020008430200084302000843020008DC
:1000F00043020008430200084302000843020008CC
:1001000043020008430200084302000843020008BB
:1001100043020008430200084302000843020008AB
:10012000430200084302000843020008430200089B
:10013000430200084302000843020008430200088B
:10014000430200084302000843020008430200087B
:10015000430200084302000843020008430200086B
:10016000430200084302000843020008430200085B
:10017000430200084302000843020008430200084B
:10018000430200084302000800F002F800F03CF8C7
:100190000AA090E8000C82448344AAF10107DA45E2
:1001A00001D100F031F8AFF2090EBAE80F0013F0F8
:1001B000010F18BFFB1A43F0010318473C29000048
:1001C0005C290000103A24BF78C878C1FAD85207D9
:1001D00024BF30C830C144BF04680C6070470000C1
:1001E0000023002400250026103A28BF78C1FBD840
:1001F000520728BF30C148BF0B6070471FB502F0DF
:1002000061FB1FBD10B510BD00F031F81146FFF7BE
:10021000F5FF02F0AFF900F04FF803B4FFF7F2FF7B
:1002200003BC00F057F80000094880470948004720
:10023000FEE7FEE7FEE7FEE7FEE7FEE7FEE7FEE796
:10024000FEE7FEE704480549054A064B70470000F3
:10025000912100088901000880080020800E0020FC
:10026000800A0020800A002070477047704775465A
:1002700000F02CF8AE4605006946534620F0070012
:10028000854618B020B5FFF7DDFFBDE820404FF0F0
:1002900000064FF000074FF000084FF0000B21F070
:1002A0000701AC46ACE8C009ACE8C009ACE8C0093D
:1002B000ACE8C0098D46704710B50446AFF3008026
:1002C0002046BDE81040FFF7A8BF00000048704777
:1002D0002008002001491820ABBEFEE726000200DE
:1002E000704700001CB50121102001F09DFC4FF467
:1002F000C050009001208DF8040000208DF8060009
:1003000003208DF8050001208DF807006946054897
:1003100000F00AFD0120044908600449C1F8B00258
:100320001CBD000000100240AC02424200004242EC
:100330000021124A11601249096821F04071104AE7
:1003400011601146096841F08071116000210D4A69
:10035000C2F8B012002001E0411CC8B21428FBDB37
:100360000121064A1160002001E0411CC8B2142896
:10037000FBDB0021014A116070470000AC024242E1
:1003800000100240000042420021104A1160104952
:10039000096821F040710E4A11601146096841F068
:1003A00080711160002001E0411CC8B21428FBDB01
:1003B0000121064A1160002001E0411CC8B2142846
:1003C000FBDB0021014A116070470000AC02424291
:1003D000001002401249096821F04071104A116072
:1003E0001146096841F08071116001210D4A1160C8
:1003F0000D4AC2F8AC12002001E0411CC8B23228FC
:10040000FBDB0021074A1160002001E0411CC8B25B
:100410003228FBDB0021034A121F116070470000E5
:1004200000100240B00242420000424212490968F4
:1004300021F04071104A11601146096841F0807145
:10044000116000210D4A11600D4AC2F8AC12002063
:1004500001E0411CC8B23228FBDB0121074A121F10
:100460001160074AC2F8B012002001E0411CC8B276
:100470003228FBDB7047000000100240B00242420D
:100480000000424210B5002400231748006820F005
:10049000407015490860084600680860012013494B
:1004A000086000BF01E0581CC3B2142BFBDB012025
:1004B0000E49091F0860002301E0581CC3B2142B29
:1004C000FBDB07E0601CC4B2FA2C03DDFFF7AEFFD4
:1004D000012010BD0548803800680028F2D103498A
:1004E000091F086000BFF4E700100240B00242425A
:1004F00010B5FFF7F7FE10BD30B50446FFF76AFFF1
:10050000A02000F04FF8FFF7BDFF204600F04AF8AA
:10051000FFF7B8FFFFF75EFFA12000F043F8FFF7F9
:10052000B1FF002000F006F80546FFF77FFF2846E0
:1005300030BD000070B505461748006820F04070D7
:100540001549086008460068086000261AE0002087
:1005500012490860002301E0581CC3B2142BFBDBD6
:1005600001200E4908606006040E0D48D0F83002E4
:100570002044C4B2002301E0581CC3B2142BFBDB9F
:10058000701CC6B2082EE2DB15B1FFF7D1FE01E008
:10059000FFF7FAFE204670BD00100240AC02424256
:1005A0000000424210B50146194B1B6823F040730E
:1005B000174C236023461B6843F08073236000239D
:1005C000144C236000221FE0CB09124C241D236031
:1005D0004B06190E002001E0431CD8B21428FBDBA7
:1005E00001230C4C2360002001E0431CD8B21428E6
:1005F000FBDB0023074C2360002001E0431CD8B242
:100600001428FBDB531CDAB2082ADDDB10BD000026
:1006100000100240AC02424270B506460C46FFF79D
:10062000D9FEA020FFF7BEFFFFF72CFF3046FFF7F3
:10063000B9FFFFF727FF2046FFF7B4FFFFF722FFC0
:10064000FFF7F4FE002500E06D1C02488542FBD355
:1006500070BD000040420F0000BFFEE710B50C481F
:10066000006818B901200B49087002E00020094910
:1006700008700748001D006818B901200649087075
:1006800002E00020044908700A2001F00BFF10BDB1
:1006900000824142080000200900002039B1084AC8
:1006A0001268012383401A43054B1A6006E0044A8E
:1006B0001268012383409A43014B1A60704700007F
:1006C0000074004041B1094A12684FF480538340DE
:1006D0001A43064B1A6007E0044A12684FF480532D
:1006E00083409A43014B1A60704700000074004039
:1006F00000B593B00121480501F096FA01214807A1
:1007000001F0A2FA04200F90002010900220129015
:100710000FA9002000F03EF81A4800F061F84FF0F1
:1007200060600090184801901848029018480088AE
:1007300004904FF400600790089040200390002040
:1007400005904FF4806006908010099040020A9056
:1007500000200B9001200C9000200D900E90694617
:10076000084800F0E9F80121064800F02DF80121C1
:100770000020FFF793FF01210020FFF7A3FF13B034
:1007800000BD000088600240087400402000002086
:100790001400002030B5002200230A4C226840F6E5
:1007A000FE748440A243D1E900452C438D682C435C
:1007B000CD6844EA050303FA00F42243014C2260A9
:1007C00030BD00000074004021B1026842F0010217
:1007D000026003E0026822F001020260704700003C
:1007E000016821F001010160002101604160816028
:1007F000C1600161212141614A49884204D13D2102
:10080000484A103A91608CE046491831884205D137
:100810004FF47461434A103A916082E041493031AB
:10082000884205D14FF474113E4A103A916078E045
:100830003C494831884205D14FF07461394A103A39
:1008400091606EE037496031884204D13649354ABB
:10085000103AD16065E033497831884204D1334998
:10086000304A103AD1605CE02E499031884204D180
:100870002F492C4A103AD16053E02A49A8318842C6
:1008800005D14FF03D51274A103AD16049E029493E
:10089000884204D13D21274A083A116041E02549A8
:1008A0001831884205D14FF47461224A083A116028
:1008B00037E020493031884205D14FF474111D4A88
:1008C000083A11602DE01B494831884205D14FF0AC
:1008D0007461184A083A116023E016496031884271
:1008E00004D11149134A121F11601AE011497831DD
:1008F000884204D10D490F4A121F116011E00D49C1
:100900009031884204D10A490A4A121F116008E056
:100910000849A831884204D14FF03D51054A121FC1
:1009200011607047106002403D000020400F002021
:1009300000003D201064024010B500220268134BF5
:100940001A40CC680B6823434C6923438C692343CA
:10095000CC6923430C6A23434C6A23438C6A2343A8
:100960004C6B23438C6B23431A430260426922F091
:100970000702D1E90B3423431A4342610B694360F8
:100980004B6883608B68C36010BD00003F801CF023
:100990007047002007E0002101E04A1CD1B2142971
:1009A000FBDB421CD0B23228F5DB704710B50120CA
:1009B00000F050F970B1FFF7ECFF0748006818B974
:1009C00001200649087002E0002004490870012057
:1009D00000F03AF910BD00000082414208000020FA
:1009E00010B5022000F036F970B1FFF7D2FF0748CA
:1009F000006818B901200649087002E00020044987
:100A00000870022000F020F910BD0000048241426D
:100A10000900002010B5042000F01CF960B3FFF7B6
:100A2000B8FF1648006801280DD115480078FF2846
:100A300003DBFF201249087012E011480078401CC7
:100A40000F4908700CE00E480078002803DC0020F5
:100A50000B49087004E00A480078401E08490870F5
:100A6000074801780020FFF7D7FD0548007800F01F
:100A700077FD042000F0E8F810BD00003C82414200
:100A80000000002010B5082000F0E4F800283DD058
:100A9000FFF77FFF1E48006801280DD11D48008820
:100AA000642803DB64201B49088012E01948008891
:100AB000401D184908800CE016480088142803DC03
:100AC00014201449088004E012480088401F11498E
:100AD000088010480488E01704EB1060C0F3072179
:100AE0000120FFF799FD0B480488E01704EB106024
:100AF0000012A4EB0020C1B20220FFF78DFD0548D3
:100B0000008800F0AFFE082000F09EF810BD000045
:100B1000388241420200002010B5102000F09AF8FF
:100B200000283FD0FFF735FF1F48006801280FD18C
:100B30001E480088B0F5967F04DB4FF496701B4981
:100B4000088012E0194800880A30184908800CE033
:100B5000164800880A2803DC0A201449088004E0AB
:100B6000124800880A381149088010480488E017A4
:100B700004EB1060C0F307210320FFF74DFD0B4885
:100B80000488E01704EB10600012A4EB0020C1B24F
:100B90000420FFF741FD0548008800F0F1FD10201A
:100BA00000F052F810BD000018024342040000207B
:100BB00010B5202000F04EF800283FD0FFF7E9FEE6
:100BC0001F48006801280FD11E480088B0F5FA7F41
:100BD00004DB4FF4FA701B49088012E019480088C2
:100BE0000A30184908800CE016480088002803DC09
:100BF00000201449088004E0124800880A3811498E
:100C0000088010480488E01704EB1060C0F3072147
:100C10000520FFF701FD0B480488E01704EB106086
:100C20000012A4EB0020C1B20620FFF7F5FC054836
:100C3000008800F033FD202000F006F810BD000011
:100C40001C02434206000020014908607047000072
:100C5000143C014001460020034A12680A400AB1D0
:100C6000012000E000207047143C0140002123498E
:100C70008279002A3AD00A46126803689A430B46E2
:100C80001A600A1D126803689A430B1D1A600279E4
:100C900011440A6803681A430A60184A0832126845
:100CA00003689A43154B08331A601A1D12680368CB
:100CB0009A43124B0C331A604279102A0ED11A1F34
:100CC000126803681A430D4B08331A601A1D126824
:100CD00003681A43094B0C331A600DE00749427947
:100CE00011440A6803681A430A6005E00279114456
:100CF0000A6803689A430A6070470000003C01409C
:100D00001CB50121084600F08FFF10200090032041
:100D10008DF8040000208DF807006946014800F0B6
:100D200003F81CBD00000240F0B50A460021002374
:100D3000002400BF3DE0012505FA01F3156805EA2E
:100D400003049C4234D105684F000326BE40B543DE
:100D5000056015794E00B540066835430560157984
:100D6000012D02D01579022D16D185684F0003267A
:100D7000BE40B543856055794E00B5408668354321
:100D80008560456801268E40B54345604568967983
:100D90008E40B6B235434560C5684F000326BE405D
:100DA000B543C560D5794E00B540C6683543C560CA
:100DB000491C1029BFD3F0BDF0B5002300244D0716
:100DC000ED0E02FA05F3CE1000F1200555F826507D
:100DD0004E07F70E0F26BE40B543CF1000F1200698
:100DE00046F82750CE1000F1200555F8265045EA68
:100DF0000304CE1000F1200545F82640F0BD4183E4
:100E0000704701837047000000B585B00121084696
:100E100000F00AFFC020039001208DF81000002090
:100E20008DF8120003208DF8110001208DF81300B9
:100E300003A9AE48FFF778FF0121042000F0F4FE7B
:100E40003020039001208DF8100000208DF8120052
:100E500003208DF8110001208DF8130003A9A44888
:100E6000FFF762FF0121084600F0DEFE0F2003902D
:100E700001208DF8100000208DF8120003208DF85D
:100E8000110001208DF8130003A99848FFF74CFFCB
:100E90000121042000F0C8FE0F20039001208DF8EE
:100EA000100000208DF8120003208DF811000120A1
:100EB0008DF8130003A98E48FFF736FF012120208B
:100EC00000F0B2FE4FF47070039001208DF8100016
:100ED00000208DF8120003208DF8110001208DF8FC
:100EE000130003A98348FFF71FFF0121402000F0F2
:100EF0009BFEFC20039000208DF8100003208DF84D
:100F0000110002208DF8130003A97B48FFF70CFFA6
:100F10000121082000F088FE4FF44040039000209B
:100F20008DF8100003208DF8110002208DF81300B9
:100F300003A97248FFF7F8FE0121082000F074FEB3
:100F40000320039000208DF8100003208DF811007D
:100F500001208DF8130003A96848FFF7E5FE012181
:100F6000880300F081FE0021032000F08FFE0121A4
:100F7000032000F08BFE0221062000F087FE0321F3
:100F8000062000F083FE0421062000F07FFE0521EC
:100F9000062000F07BFE0120019000208DF8080063
:100FA00010208DF8090001208DF80A0001A8FFF734
:100FB0005DFE06208DF8000002208DF801008DF8FE
:100FC000020001208DF80300684600F0EFFD0220CA
:100FD000019000208DF8080010208DF809000120F4
:100FE0008DF80A0001A8FFF741FE07208DF80000E8
:100FF00002208DF801008DF8020001208DF8030019
:10100000684600F0D3FD0420019000208DF8080010
:1010100008208DF8090001208DF80A0001A8FFF7CB
:1010200025FE08208DF8000002208DF801008DF8C3
:10103000020001208DF80300684600F0B7FD08208B
:10104000019000208DF8080008208DF8090001208B
:101050008DF80A0001A8FFF709FE09208DF80000AD
:1010600002208DF801008DF8020001208DF80300A8
:10107000684600F09BFD1020019000208DF80800CC
:1010800008208DF8090001208DF80A0001A8FFF75B
:10109000EDFD0A208DF8000002208DF801008DF88A
:1010A000020001208DF80300684600F07FFD20203B
:1010B000019000208DF8080008208DF8090001201B
:1010C0008DF80A0001A8FFF7D1FD17208DF8000068
:1010D00002208DF801008DF8020001208DF8030038
:1010E000684600F063FD05B000BD0000000002404E
:1010F000000802400014024000180240000C0240A8
:1011000000BFFEE72DE9F0478CB00527B846B94689
:10111000BA466426AAA103C9CDE90A01AAA207CA50
:1011200007AB07C3ABA207CA04AB07C3ACA207CA8D
:1011300001AB07C3ADA000680090002518E00621B0
:1011400001FB0571C8B2002100F0F6F900240BE0A4
:101150000AA9495D01EB4101A54A02EB4101085D85
:1011600000F0DEFC601CC4B2062CF1DB681CC5B2CA
:10117000062DE4DB002518E0062101FB0581C8B23D
:10118000022100F0D9F900240BE007A9495D01EB29
:101190004101974A02EB4101085D00F0C1FC601C6F
:1011A000C4B2062CF1DB681CC5B2092DE4DB0025B6
:1011B00018E0062101FB0561C8B2022100F0BCF96C
:1011C00000240BE01DF8051001EB4101884A02EBF9
:1011D0004101085D00F0A4FC601CC4B2062CF1DBE8
:1011E000681CC5B2032DE4DB002518E0062101FBD5
:1011F0000591C8B2042100F09FF900240BE004A976
:10120000495D01EB41017A4A02EB4101085D00F0C2
:1012100087FC601CC4B2062CF1DB681CC5B2092D2A
:10122000E4DB012518E0062101FB0561C8B20421B9
:1012300000F082F900240BE01DF8051001EB4101DC
:101240006B4A02EB4101085D00F06AFC601CC4B20D
:10125000062CF1DB681CC5B2032DE4DB002518E089
:10126000062101FB05A1C8B2062100F065F90024A2
:101270000BE001A9495D01EB41015D4A02EB41012F
:10128000085D00F04DFC601CC4B2062CF1DB681C4C
:10129000C5B2092DE4DB07210B2000F04DF9002435
:1012A00005E05449085D00F03BFC601CC4B2062C0C
:1012B000F7DB0721112000F03FF9002406E04D493B
:1012C000BA31085D00F02CFC601CC4B2062CF6DBC1
:1012D0000721252000F030F9002405E04549085D8C
:1012E00000F01EFC601CC4B2062CF7DB07212B208B
:1012F00000F022F9002406E03E498A31085D00F042
:101300000FFC601CC4B2062CF6DB0721312000F074
:1013100013F9002406E037498A31085D00F000FC2B
:10132000601CC4B2062CF6DB07214B2000F004F948
:10133000002405E02F49085D00F0F2FB601CC4B2F8
:10134000062CF7DB0721512000F0F6F8002406E018
:101350002849BA31085D00F0E3FB601CC4B2062CDA
:10136000F6DB0721652000F0E7F8002405E02149BD
:10137000085D00F0D5FB601CC4B2062CF7DB07212A
:101380006B2000F0D9F8002406E01A498A31085D84
:1013900000F0C6FB601CC4B2062CF6DB07217120EE
:1013A00000F0CAF8002406E012498A31085D00F016
:1013B000B7FB601CC4B2062CF6DB0CB0BDE8F087AE
:1013C00021242E554D1A0000335155415B265245BC
:1013D0001A00000033494E455B2652451A000000B2
:1013E00033494E455B214D501A0000004B285A00EE
:1013F000CE280008E829000870B50646002415E04C
:1014000004F1B001C8B200F049FB012000F046FB36
:10141000102000F043FB002504E0304600F080FB84
:10142000681CC5B2802DF8DB601CC4B2082CE7DB59
:1014300070BD000010B520213D48FFF7E2FC80217F
:101440003C48FFF7DCFC322001F02CF880213948C1
:10145000FFF7D7FC002000F058FD0A2001F022F829
:10146000802000F040FD0A2001F01CF83F2000F031
:1014700061FD0A2001F016F8002000F03DFD0A2071
:1014800001F010F8002000F095FC0A2001F00AF8A5
:10149000042000F00DFD0A2001F004F8022000F005
:1014A00077FC0A2000F0FEFF012000F055FD0A2025
:1014B00000F0F8FF082000F00FFD0A2000F0F2FF16
:1014C000102000F0FFFC0A2000F0ECFFCF2000F01D
:1014D00068FC0A2000F0E6FFF12000F034FD0A204D
:1014E00000F0E0FF402000F03EFD0A2000F0DAFFAF
:1014F000002000F011FD0A2000F0D4FF002000F0D1
:1015000012FD0A2000F0CEFF012000F0FEFC0A20B0
:1015100000F0C8FF0020FFF76FFF0A2000F0C2FFB5
:101520000021084600F008F80A2000F0BBFF10BDBB
:10153000000802400000024070B504460D4605F167
:10154000B001C8B200F0AAFA102141EA141000F06C
:10155000A5FA04F00F0141F0010000F09FFA70BD00
:101560002DE9F04106462A27072526E007F12A0142
:10157000062202FB1511C8B20021FFF7DDFF012092
:10158000A840304050B1002405E04349085D00F018
:10159000C7FA601CC4B2062CF7DB0AE0002406E0A0
:1015A0003D49891F085D00F0BBFA601CC4B2062CDF
:1015B000F6DB05B903E0681EC5B2002DD6DA00BF20
:1015C00000215F20FFF7B8FF642096FBF0F0C5B262
:1015D000632E11DD00240CE005F1100101EB410147
:1015E0002D4A663A02EB4101085D00F099FA601C51
:1015F000C4B2062CF0DB08E0002404E0002000F078
:101600008FFA601CC4B2062CF8DB00216520FFF7BE
:1016100093FF642096FBF0F100FB11600A2190FB20
:10162000F1F0C5B2092E11DD00240CE005F1100126
:1016300001EB4101184A663A02EB4101085D00F0F6
:101640006FFA601CC4B2062CF0DB08E0002404E052
:10165000002000F065FA601CC4B2062CF8DB002103
:101660006B20FFF769FF0A2096FBF0F100FB116089
:10167000C5B200240CE005F1100101EB4101064A5E
:10168000663A02EB4101085D00F04AFA601CC4B200
:10169000062CF0DBBDE8F081342900082DE9F0418B
:1016A00005464727642095FBF0F0C6B20621384670
:1016B000FFF742FF632D10DD00240BE006F110015F
:1016C00001EB41012D4A02EB4101085D00F028FACF
:1016D000601CC4B2062CF1DB08E0002404E000200A
:1016E00000F01EFA601CC4B2062CF8DB642095FBE7
:1016F000F0F100FB11500A2190FBF1F0C6B2B91DC8
:10170000C8B20621FFF718FF092D10DD00240BE0F9
:1017100006F1100101EB4101184A02EB4101085D9D
:1017200000F0FEF9601CC4B2062CF1DB08E00024D6
:1017300004E0002000F0F4F9601CC4B2062CF8DBD1
:101740000A2095FBF0F100FB1150C6B207F10C0125
:10175000C8B20621FFF7F0FE00240BE006F11001ED
:1017600001EB4101054A02EB4101085D00F0D8F9A7
:10177000601CC4B2062CF1DBBDE8F081CE28000865
:101780002DE9F04105464727642095FBF0F0C6B2ED
:1017900004213846FFF7D0FE632D10DD00240BE056
:1017A00006F1100101EB41012D4A02EB4101085DF8
:1017B00000F0B6F9601CC4B2062CF1DB08E000248E
:1017C00004E0002000F0ACF9601CC4B2062CF8DB89
:1017D000642095FBF0F100FB11500A2190FBF1F021
:1017E000C6B2B91DC8B20421FFF7A6FE092D10DD4F
:1017F00000240BE006F1100101EB4101184A02EB55
:101800004101085D00F08CF9601CC4B2062CF1DBCC
:1018100008E0002404E0002000F082F9601CC4B25B
:10182000062CF8DB0A2095FBF0F100FB1150C6B244
:1018300007F10C01C8B20421FFF77EFE00240BE083
:1018400006F1100101EB4101054A02EB4101085D7F
:1018500000F066F9601CC4B2062CF1DBBDE8F08133
:10186000CE2800082DE9F041054641274FF47A7053
:1018700095FBF0F0C6B202213846FFF75DFEB5F5E4
:101880007A7F10DB00240BE006F1100101EB41012F
:10189000434A02EB4101085D00F042F9601CC4B20A
:1018A000062CF1DB08E0002404E0002000F038F909
:1018B000601CC4B2062CF8DB4FF47A7095FBF0F193
:1018C00000FB1150642190FBF1F0C6B2B91DC8B203
:1018D0000221FFF731FE632D10DD00240BE006F13D
:1018E000100101EB41012E4A02EB4101085D00F0BD
:1018F00017F9601CC4B2062CF1DB08E0002404E0F8
:10190000002000F00DF9601CC4B2062CF8DB642046
:1019100095FBF0F100FB11500A2190FBF1F0C6B2EB
:1019200007F10C01C8B20221FFF706FE092D10DDF8
:1019300000240BE006F1100101EB4101184A02EB13
:101940004101085D00F0ECF8601CC4B2062CF1DB2C
:1019500008E0002404E0002000F0E2F8601CC4B2BB
:10196000062CF8DB0A2095FBF0F100FB1150C6B203
:1019700007F11201C8B20221FFF7DEFD00240BE0DF
:1019800006F1100101EB4101054A02EB4101085D3E
:1019900000F0C6F8601CC4B2062CF1DBBDE8F08193
:1019A000CE28000870B50546012D1BD10721022065
:1019B000FFF7C2FD002405E01849085D00F0B0F80B
:1019C000601CC4B2062CF7DB07211C20FFF7B4FD16
:1019D000002404E0002000F0A3F8601CC4B2062C30
:1019E000F8DB1AE007210220FFF7A6FD002404E03F
:1019F000002000F095F8601CC4B2062CF8DB07212B
:101A00001C20FFF799FD002405E00449085D00F063
:101A100087F8601CC4B2062CF7DB70BD0A290008E9
:101A200070B50546012D1BD107214320FFF784FD2A
:101A3000002405E01849085D00F072F8601CC4B28B
:101A4000062CF7DB07215C20FFF776FD002404E07D
:101A5000002000F065F8601CC4B2062CF8DB1AE028
:101A600007214320FFF768FD002404E0002000F078
:101A700057F8601CC4B2062CF8DB07215C20FFF786
:101A80005BFD002405E00449085D00F049F8601C96
:101A9000C4B2062CF7DB70BD0A29000870B50446F5
:101AA000082540211C48FFF7AAF9012000F016FD87
:101AB00020211A48FFF7A3F9052000F00FFD24E0CC
:101AC00004F0800038B110211448FFF79AF9012082
:101AD00000F004FD06E010211048FFF790F9012006
:101AE00000F0FCFC20210D48FFF78BF9032000F0EB
:101AF000F5FC20210948FFF782F9012000F0EEFCF7
:101B00006006040E012000F0E9FC281EA5F1010189
:101B1000CDB2D5D170BD00000000024000080240E7
:101B200070B50446082540211C48FFF76AF90120DA
:101B300000F0D4FC20211A48FFF761F9052000F0DD
:101B4000CDFC24E004F0800038B110211448FFF7E8
:101B500058F9012000F0C2FC06E010211048FFF700
:101B60004EF9012000F0BAFC20210D48FFF749F999
:101B7000032000F0B3FC20210948FFF740F90120C1
:101B800000F0ACFC6006040E012000F0A7FC281E4B
:101B9000A5F10101CDB2D5D170BD00000000024019
:101BA0000008024000BFFEE77047000070B500214A
:101BB00000230F22C4781CB3174C246804F4E0649B
:101BC000C4F5E064C4F30721C1F10404E3B20A419F
:101BD00044789C40E1B28478144021430C07210EE4
:101BE0000E4C05786155047804F01F050124AC40C3
:101BF00005786D11AD0005F1E025C5F8004109E05B
:101C0000047804F01F050124AC40054D06787611D8
:101C100045F8264070BD00000CED00E000E400E057
:101C200080E100E07047000029B1064A12680243D3
:101C3000044B1A6004E0034A12688243014B1A60A5
:101C4000704700003038024029B1064A126802434A
:101C5000044B1A6004E0034A12688243014B1A6085
:101C6000704700004038024029B1064A126802431A
:101C7000044B1A6004E0034A12688243014B1A6065
:101C800070470000443802407047000030B5002221
:101C90008B071C0F0F2303FA04F20B4B8C1053F825
:101CA00024309343084C8D1044F8253023468C1083
:101CB00053F824308C07240F00FA04F42343024C19
:101CC0008D1044F8253030BD0838014000F0010186
:101CD00019B101212C4A116002E000212A4A116049
:101CE00000F0020121B10121274A121F116003E017
:101CF0000021254A121F116000F0040121B10121C9
:101D0000214A083A116003E000211F4A083A116095
:101D100000F0080121B101211B4A0C3A116003E0D7
:101D20000021194A0C3A116000F0100119B101218B
:101D3000164A116002E00021144A116000F02001EF
:101D400021B10121114A121F116003E000210F4A45
:101D5000121F116000F0400121B101210B4A083A25
:101D6000116003E00021094A083A116000F0800187
:101D700021B10121054A0C3A116003E00021034A18
:101D80000C3A1160704700008C0240428C024142C4
:101D900010B504462020FFF781FE2046FFF77EFEA7
:101DA00010BD10B504468120FFF778FE2046FFF7EE
:101DB00075FE10BD10B5044644F04000FFF76EFEFE
:101DC00010BD00000CB50020019000903448006860
:101DD00040F480303249086000BF3148006800F4A8
:101DE000003000900198401C0190009818B90198AB
:101DF000B0F5A04FF1D12A48006800F4003010B1CE
:101E00000120009001E0002000900098012846D1B8
:101E100023484030006840F080502149403108603C
:101E20002048006840F440401E4908601C480830C3
:101E300000681B49083108600846006840F400400B
:101E400008600846006840F4A05008601648091F62
:101E50000860081F006840F08070091F086000BF1C
:101E60000F48006800F000700028F9D040F20570BB
:101E70000E4908600A480830006820F0030008494D
:101E8000083108600846006840F00200086000BFA2
:101E900003480830006800F00C000828F8D10CBD99
:101EA000003802400070004008544007003C0240E7
:101EB00010B504468D20FFF7F1FD44F01000FFF748
:101EC000EDFD10BD10B50446DA20FFF7E7FD44F044
:101ED0000200FFF7E3FD10BD10B5044644F0C0005A
:101EE000FFF7DCFD10BD10B50446D520FFF7D6FD89
:101EF0002046FFF7D3FD10BD10B50446D320FFF7F1
:101F0000CDFD2046FFF7CAFD10BD10B5044644F0D4
:101F1000AE00FFF7C3FD10BD10B5044644F0A400A9
:101F2000FFF7BCFD10BD10B5044644F0A600FFF756
:101F3000B5FD10BD10B50446A820FFF7AFFD204643
:101F4000FFF7ACFD10BD10B50446D920FFF7A6FD84
:101F50002046FFF7A3FD10BD10B5044644F0A000D5
:101F6000FFF79CFD10BD10B50446DB20FFF796FD82
:101F70002046FFF793FD10BD10B5FFF7C3F8002012
:101F8000FEF7BAFA6449087008460078FFF79EFE2B
:101F900061480078614908705F480078FFF7E0FA0F
:101FA0000120FEF7A9FA5E490880084600884FF62E
:101FB000FF7101EA00205A4908800220FEF79CFACE
:101FC0005749098808445649088008460088FFF7A1
:101FD00049FC534800885349088008460088524904
:101FE00091FBF0F0401E5149088000214F480088C5
:101FF00000F002F90320FEF77FFA4D4908800846F9
:1020000000884FF6FF7101EA00204949088004204A
:10201000FEF772FA4649098808444549088008468F
:102020000088FFF7ADFB4248008842490880052040
:10203000FEF762FA40490880084600884FF6FF71B3
:1020400001EA00203C4908800620FEF755FA3A498B
:10205000098808443849088008460088FFF71EFBB5
:10206000354800883549088008460188304800888E
:1020700000F072FB2E480088314991FBF0F03149A5
:10208000098890FBF1F0401E2F490880084600881F
:1020900000F00AF9FEF72CFBFEF7E0FA2B48007877
:1020A0002B49087008460078012802D129490860A8
:1020B00002E000202749086025480078FFF772FCFD
:1020C000254800782549087008460078012811D174
:1020D00020490C3108600A2000F0E4F90120204971
:1020E000C1F89C020A2000F0DDF9012019490831ED
:1020F000086009E0002017490C3108601849C1F850
:102100009C0214490831086014480078FFF788FCE5
:10211000142000F0C7F910BD000000200A000020C4
:10212000020000200C000020204801001A000020BE
:10213000040000200E0000200600002010000020F7
:1021400080DE80021400002016000020080000201D
:102150001200002098824242090000201300002053
:1021600000804242042808D14FF0E021096941F083
:1021700004014FF0E022116107E04FF0E02109690E
:1021800021F004014FF0E022116170477047000018
:1021900010B51548006840F47000134908601348F2
:1021A000006840F001001149086000200F49083123
:1021B00008600E4800680E4908400C4908600D4848
:1021C000091D0860081F006820F48020091F0860AE
:1021D000002006490C310860FFF7F4FD4FF0006065
:1021E00001498039086010BD88ED00E000380240E8
:1021F000FFFFF6FE1030002430B58BB004460D46CC
:1022000001210420FFF720FD01210220FFF70CFD32
:10221000022208212248FEF7CFFD4FF4807009907A
:1022200002208DF8280003208DF8290000208DF869
:102230002A0001208DF82B0009A91948FEF774FD2A
:10224000A8B2ADF818000020ADF81A000794ADF858
:10225000200006A9134800F0C3F86020ADF8040080
:102260000120ADF806000220ADF8100001A90D48CC
:1022700000F04CF808210B4800F098F801210948BB
:1022800000F02CF80121074800F034F8601C01220E
:10229000C2EB5001034800F0A0F80BB030BD0000C5
:1022A000000402400008004010B50446012110203F
:1022B000FFF7CAFC00220121074800F080F8214600
:1022C000054800F088F82021034800F07BF8012140
:1022D000014800F00FF810BD0010004021B1028845
:1022E00042F08002028004E002884FF67F731A40B9
:1022F0000280704721B1028842F00102028004E0AE
:1023000002884FF6FE731A400280704770B50024B1
:1023100000220023058C4FF6FF6635400584028CB1
:102320008388848B4FF68F752C404FF6FC752C40BC
:102330000D882C434FF6FF552A408D894FF6FF76C6
:1023400006EA05252A434D8806EA05252A43154D48
:10235000A84202D0144DA8421DD14FF2FF752A4069
:10236000CD894FF6FF7606EA05252A434FF6FF355D
:102370002A408D8806EA05252A434EF6FF752B4034
:102380004DF6FF752B400D8A06EA05152B434D8A45
:1023900006EA05152B43838084838D68C563028418
:1023A00070BD000000000140000401400A46002109
:1023B000818B4FF6F7731940114381837047018574
:1023C0008282704782884FF68F731A40828082889B
:1023D0000A4382807047C1627047C1637047000042
:1023E00000220288184B98420ED0184B98420BD00E
:1023F000B0F1804F08D0164B984205D0154B98424B
:1024000002D0154B984204D14FF68F731A404B8877
:102410001A43124B984207D0114B984204D04FF602
:10242000FF431A400B891A4302804B68C3620B8832
:102430000385054B984202D0044B984201D18B7A18
:10244000038601238382704700000140000401409D
:102450000004004000080040000C00400010004054
:102460000014004000BFFEE710B504466FF0040002
:10247000FFF778FEE11704EB5171C1F3C701074A7A
:1024800011701046007800EB4001C1EBC0104FF610
:10249000FF7101EAC0000249088010BD1C00002045
:1024A0001E00002070B504464FF4077094FBF0F056
:1024B000C6B24FF4077094FBF0F100FB114085B2F7
:1024C00005E04FF4077000F02FF8701EC6B2002E22
:1024D000F7D115B1284600F027F870BD0146114A22
:1024E00012784A434FF0E0235A6100229A611A465B
:1024F000126942F001021A6100BF4FF0E022106938
:1025000000F001021AB100F48032002AF5D04FF039
:10251000E022126922F001024FF0E0231A6100224A
:102520009A6170471C0000200146114A12884A43F4
:102530004FF0E0235A6100229A611A46126942F074
:1025400001021A6100BF4FF0E022106900F00102A1
:102550001AB100F48032002AF5D04FF0E02212695F
:1025600022F001024FF0E0231A6100229A617047C5
:102570001E000020A820FFF777FFFEF745FCFEF7BE
:10258000BFFBFDF7B5FFFEF755FFFFF7F5FCBCE01D
:10259000FEF764F85D4800785D490978884211D0FB
:1025A0005A4800785A49087008460078012802D134
:1025B0005849086002E000205649086054480078F5
:1025C000FFF7F0F95448007854490978884227D039
:1025D000514800785149087008460078012811D107
:1025E0004C490C3108606420FFF75CFF01204C4926
:1025F000C1F89C026420FFF755FF012045490831CE
:10260000086009E0002043490C3108604449C1F8E2
:102610009C0240490831086040480078FFF700FA02
:10262000404800784049097888420AD03E480078FE
:102630003C49087008460078FFF748FB0A20FFF77E
:1026400031FF3A4800883A490988884213D038480F
:1026500000883649088008460088364991FBF0F02A
:10266000401E35490880002133480088FFF7C4FD2B
:102670000A20FFF717FF314800883149098888424E
:102680001ED02F4800882D4908802E4801882B48ED
:10269000008800F061F8294800882B4991FBF0F090
:1026A0002A49098890FBF1F0401E29490880084614
:1026B0000088FFF7F9FDFEF71BF80A20FFF7F2FE8E
:1026C000244800881F49098888421ED01D48008878
:1026D00020490880084601881848008800F03CF826
:1026E00016480088184991FBF0F01849098890FBBA
:1026F000F1F0401E1649088008460088FFF7D4FD17
:10270000FDF7F6FF0A20FFF7CDFE41E708000020A5
:10271000120000209882424209000020130000208D
:10272000008042420A000020000000200C0000202F
:1027300002000020204801001A0000200E000020A6
:10274000040000200600002080DE8002140000202B
:10275000160000201000002030B503460A46B2F5EE
:10276000F57F01DD4FF4F57240F6FA7454434FF4EF
:10277000FA7594FBF5F1962B04DD4FF400744F4D80
:102780002C8003E04FF480644C4D2C8028292FD9F5
:1027900000200BE044004C43484D2D88B4FBF5F479
:1027A0003C34474D25F81040441CA0B2434D2C88C2
:1027B00004EBD475B0EB650FECDB404D2C8804EBDB
:1027C000D475681010E04400A41C3C4D2D88641B97
:1027D0004C433A4D2D88B4FBF5F40C1B3C34384D7A
:1027E00025F81040441CA0B2344C2488A042EADBF7
:1027F000282931D80A292FD300200BE044004C436C
:102800002E4D2D88B4FBF5F455342D4D25F8104090
:10281000441CA0B2294D2C8804EBD475B0EB650F95
:10282000ECDB264D2C8804EBD475681010E04400D6
:10283000A41C224D2D88641B4C43204D2D88B4FBD5
:10284000F5F40C1B55341E4D25F81040441CA0B265
:102850001A4C2488A042EADB79BB00200BE044003C
:102860004C43164D2D88B4FBF5F46434144D25F813
:102870001040441CA0B2114D2C8804EBD475B0EB71
:10288000650FECDB0D4D2C8804EBD475681010E05F
:102890004400A41C094D2D88641B4C43074D2D8812
:1028A000B4FBF5F40C1B6434054D25F81040441CB2
:1028B000A0B2024C2488A042EADB30BD1400002004
:1028C000200000204FF04070E1EE100A7047000039
:1028D000000000000000002F0000000007000700BB
:1028E00000147F147F1400242A7F2A1200626408D7
:1028F0001323003649552250000005030000000054
:102900001C224100000041221C000014083E081453
:102910000008083E0808000000A060000008080841
:102920000808000060600000002010080402003E5B
:102930005149453E0000427F4000004261514946F6
:10294000002141454B31001814127F1000274545E6
:102950004539003C4A4949300001710905030036F8
:102960004949493600064949291E0000363600000B
:102970000000563600000008142241000014141410
:10298000141400004122140800020151090600320B
:102990004959513E007C1211127C007F4949493649
:1029A000003E41414122007F4141221C007F4949B4
:1029B0004941007F09090901003E4149497A007FE8
:1029C0000808087F0000417F4100002040413F018E
:1029D000007F08142241007F40404040007F020CED
:1029E000027F007F0408107F003E4141413E007F8E
:1029F00009090906003E4151215E007F0919294657
:102A00000046494949310001017F0101003F404032
:102A1000403F001F2040201F003F4038403F0063E0
:102A20001408146300070870080700615149454302
:102A300000007F41410000552A552A5500004141C0
:102A40007F000004020102040040404040400000BA
:102A500001020400002054545478007F4844443854
:102A600000384444442000384444487F00385454DB
:102A7000541800087E0901020018A4A4A47C007F59
:102A8000080404780000447D4000004080847D00FC
:102A9000007F102844000000417F4000007C0418A3
:102AA0000478007C0804047800384444443800FC6E
:102AB000242424180018242418FC007C080404088A
:102AC00000485454542000043F444020003C4040FF
:102AD000207C001C2040201C003C4030403C004436
:102AE00028102844001CA0A0A07C004464544C443E
:102AF0008080808080800000182B0008000000206B
:102B000020000000C4010008382B0008200000202D
:102B1000600E0000E001000800000000000000005E
:102B200000000000000000000000000000000000A5
:082B300000000000000000009D
:040000050800018965
:00000001FF
